{
  "_format": "hh-sol-artifact-1",
  "contractName": "AIArena",
  "sourceName": "contracts/aiArena.sol",
  "abi": [
    {
      "anonymous": false,
      "inputs": [
        {
          "indexed": false,
          "internalType": "uint8",
          "name": "version",
          "type": "uint8"
        }
      ],
      "name": "Initialized",
      "type": "event"
    },
    {
      "inputs": [
        {
          "internalType": "address",
          "name": "user",
          "type": "address"
        }
      ],
      "name": "Claim",
      "outputs": [],
      "stateMutability": "nonpayable",
      "type": "function"
    },
    {
      "inputs": [
        {
          "internalType": "uint256",
          "name": "amount",
          "type": "uint256"
        }
      ],
      "name": "Deposit",
      "outputs": [],
      "stateMutability": "payable",
      "type": "function"
    },
    {
      "inputs": [
        {
          "internalType": "uint256",
          "name": "_ticket",
          "type": "uint256"
        },
        {
          "internalType": "bool",
          "name": "result",
          "type": "bool"
        }
      ],
      "name": "Play",
      "outputs": [],
      "stateMutability": "nonpayable",
      "type": "function"
    },
    {
      "inputs": [],
      "name": "TicketPerEther",
      "outputs": [
        {
          "internalType": "uint8",
          "name": "",
          "type": "uint8"
        }
      ],
      "stateMutability": "view",
      "type": "function"
    },
    {
      "inputs": [],
      "name": "WinMultiplier",
      "outputs": [
        {
          "internalType": "uint8",
          "name": "",
          "type": "uint8"
        }
      ],
      "stateMutability": "view",
      "type": "function"
    },
    {
      "inputs": [
        {
          "internalType": "uint256",
          "name": "amount",
          "type": "uint256"
        }
      ],
      "name": "Withdraw",
      "outputs": [],
      "stateMutability": "payable",
      "type": "function"
    },
    {
      "inputs": [],
      "name": "WithdrawAll",
      "outputs": [],
      "stateMutability": "payable",
      "type": "function"
    },
    {
      "inputs": [
        {
          "internalType": "address",
          "name": "",
          "type": "address"
        }
      ],
      "name": "deposit",
      "outputs": [
        {
          "internalType": "uint256",
          "name": "",
          "type": "uint256"
        }
      ],
      "stateMutability": "view",
      "type": "function"
    },
    {
      "inputs": [
        {
          "internalType": "address",
          "name": "user",
          "type": "address"
        }
      ],
      "name": "getRemovalReward",
      "outputs": [
        {
          "internalType": "uint256",
          "name": "",
          "type": "uint256"
        }
      ],
      "stateMutability": "view",
      "type": "function"
    },
    {
      "inputs": [],
      "name": "initialize",
      "outputs": [],
      "stateMutability": "nonpayable",
      "type": "function"
    },
    {
      "inputs": [],
      "name": "owner",
      "outputs": [
        {
          "internalType": "address",
          "name": "",
          "type": "address"
        }
      ],
      "stateMutability": "view",
      "type": "function"
    },
    {
      "inputs": [
        {
          "internalType": "uint8",
          "name": "_TicketPerEther",
          "type": "uint8"
        }
      ],
      "name": "setTicketPerEther",
      "outputs": [],
      "stateMutability": "nonpayable",
      "type": "function"
    },
    {
      "inputs": [
        {
          "internalType": "uint8",
          "name": "_WinMultiplier",
          "type": "uint8"
        }
      ],
      "name": "setWinMultiplier",
      "outputs": [],
      "stateMutability": "nonpayable",
      "type": "function"
    },
    {
      "inputs": [
        {
          "internalType": "address",
          "name": "",
          "type": "address"
        }
      ],
      "name": "ticket",
      "outputs": [
        {
          "internalType": "uint256",
          "name": "",
          "type": "uint256"
        }
      ],
      "stateMutability": "view",
      "type": "function"
    }
  ],
  "bytecode": "0x608060405234801561001057600080fd5b5061182f806100206000396000f3fe6080604052600436106100dd5760003560e01c806368e4c6581161007f578063b66c25cd11610059578063b66c25cd14610249578063c3e7378f14610286578063cb77ea7c146102af578063f340fa01146102da576100dd565b806368e4c658146101de5780638129fc1c146102075780638da5cb5b1461021e576100dd565b80633d37eb53116100bb5780633d37eb53146101735780634d6ce1e51461019c5780635a648bc5146101b85780635b6b431d146101c2576100dd565b80630146a816146100e25780630c7ef9321461011f578063142bc76514610148575b600080fd5b3480156100ee57600080fd5b5061010960048036038101906101049190611091565b610317565b60405161011691906110d7565b60405180910390f35b34801561012b57600080fd5b5061014660048036038101906101419190611091565b61032f565b005b34801561015457600080fd5b5061015d6104f7565b60405161016a919061110e565b60405180910390f35b34801561017f57600080fd5b5061019a60048036038101906101959190611155565b61050a565b005b6101b660048036038101906101b191906111ae565b6105b8565b005b6101c061077c565b005b6101dc60048036038101906101d791906111ae565b610898565b005b3480156101ea57600080fd5b5061020560048036038101906102009190611155565b610a3a565b005b34801561021357600080fd5b5061021c610ae8565b005b34801561022a57600080fd5b50610233610c97565b60405161024091906111ea565b60405180910390f35b34801561025557600080fd5b50610270600480360381019061026b9190611091565b610cbd565b60405161027d91906110d7565b60405180910390f35b34801561029257600080fd5b506102ad60048036038101906102a8919061123d565b610db7565b005b3480156102bb57600080fd5b506102c4610f04565b6040516102d1919061110e565b60405180910390f35b3480156102e657600080fd5b5061030160048036038101906102fc9190611091565b610f17565b60405161030e91906110d7565b60405180910390f35b60016020528060005260406000206000915090505481565b6000600160008373ffffffffffffffffffffffffffffffffffffffff1673ffffffffffffffffffffffffffffffffffffffff16815260200190815260200160002054116103b1576040517f08c379a00000000000000000000000000000000000000000000000000000000081526004016103a8906112da565b60405180910390fd5b60008060169054906101000a900460ff1660ff16670de0b6b3a7640000600160008573ffffffffffffffffffffffffffffffffffffffff1673ffffffffffffffffffffffffffffffffffffffff168152602001908152602001600020546104189190611329565b610422919061139a565b905080471015610467576040517f08c379a000000000000000000000000000000000000000000000000000000000815260040161045e90611417565b60405180910390fd5b6000600160008473ffffffffffffffffffffffffffffffffffffffff1673ffffffffffffffffffffffffffffffffffffffff168152602001908152602001600020819055508173ffffffffffffffffffffffffffffffffffffffff166108fc829081150290604051600060405180830381858888f193505050501580156104f2573d6000803e3d6000fd5b505050565b600060169054906101000a900460ff1681565b600060029054906101000a900473ffffffffffffffffffffffffffffffffffffffff1673ffffffffffffffffffffffffffffffffffffffff163373ffffffffffffffffffffffffffffffffffffffff161461059a576040517f08c379a0000000000000000000000000000000000000000000000000000000008152600401610591906114a9565b60405180910390fd5b80600060176101000a81548160ff021916908360ff16021790555050565b600081116105fb576040517f08c379a00000000000000000000000000000000000000000000000000000000081526004016105f290611515565b60405180910390fd5b803373ffffffffffffffffffffffffffffffffffffffff16311015610655576040517f08c379a000000000000000000000000000000000000000000000000000000000815260040161064c90611417565b60405180910390fd5b803414610697576040517f08c379a000000000000000000000000000000000000000000000000000000000815260040161068e906115a7565b60405180910390fd5b80600260003373ffffffffffffffffffffffffffffffffffffffff1673ffffffffffffffffffffffffffffffffffffffff16815260200190815260200160002060008282546106e691906115c7565b925050819055506000670de0b6b3a7640000600060169054906101000a900460ff1660ff16836107169190611329565b610720919061139a565b905080600160003373ffffffffffffffffffffffffffffffffffffffff1673ffffffffffffffffffffffffffffffffffffffff168152602001908152602001600020600082825461077191906115c7565b925050819055505050565b600060029054906101000a900473ffffffffffffffffffffffffffffffffffffffff1673ffffffffffffffffffffffffffffffffffffffff163373ffffffffffffffffffffffffffffffffffffffff161461080c576040517f08c379a0000000000000000000000000000000000000000000000000000000008152600401610803906114a9565b60405180910390fd5b6000471161084f576040517f08c379a000000000000000000000000000000000000000000000000000000000815260040161084690611417565b60405180910390fd5b3373ffffffffffffffffffffffffffffffffffffffff166108fc479081150290604051600060405180830381858888f19350505050158015610895573d6000803e3d6000fd5b50565b600060029054906101000a900473ffffffffffffffffffffffffffffffffffffffff1673ffffffffffffffffffffffffffffffffffffffff163373ffffffffffffffffffffffffffffffffffffffff1614610928576040517f08c379a000000000000000000000000000000000000000000000000000000000815260040161091f906114a9565b60405180910390fd5b6000811161096b576040517f08c379a000000000000000000000000000000000000000000000000000000000815260040161096290611515565b60405180910390fd5b804710156109ae576040517f08c379a00000000000000000000000000000000000000000000000000000000081526004016109a590611417565b60405180910390fd5b8034146109f0576040517f08c379a00000000000000000000000000000000000000000000000000000000081526004016109e7906115a7565b60405180910390fd5b3373ffffffffffffffffffffffffffffffffffffffff166108fc829081150290604051600060405180830381858888f19350505050158015610a36573d6000803e3d6000fd5b5050565b600060029054906101000a900473ffffffffffffffffffffffffffffffffffffffff1673ffffffffffffffffffffffffffffffffffffffff163373ffffffffffffffffffffffffffffffffffffffff1614610aca576040517f08c379a0000000000000000000000000000000000000000000000000000000008152600401610ac1906114a9565b60405180910390fd5b80600060166101000a81548160ff021916908360ff16021790555050565b60008060019054906101000a900460ff16159050808015610b195750600160008054906101000a900460ff1660ff16105b80610b465750610b2830610f2f565b158015610b455750600160008054906101000a900460ff1660ff16145b5b610b85576040517f08c379a0000000000000000000000000000000000000000000000000000000008152600401610b7c9061166d565b60405180910390fd5b60016000806101000a81548160ff021916908360ff1602179055508015610bc2576001600060016101000a81548160ff0219169083151502179055505b6005600060166101000a81548160ff021916908360ff1602179055506002600060176101000a81548160ff021916908360ff16021790555032600060026101000a81548173ffffffffffffffffffffffffffffffffffffffff021916908373ffffffffffffffffffffffffffffffffffffffff1602179055508015610c945760008060016101000a81548160ff0219169083151502179055507f7f26b83ff96e1f2b6a682f133852f6798a09c465da95921460cefb38474024986001604051610c8b91906116d2565b60405180910390a15b50565b600060029054906101000a900473ffffffffffffffffffffffffffffffffffffffff1681565b600080600160008473ffffffffffffffffffffffffffffffffffffffff1673ffffffffffffffffffffffffffffffffffffffff1681526020019081526020016000205411610d40576040517f08c379a0000000000000000000000000000000000000000000000000000000008152600401610d37906112da565b60405180910390fd5b600060169054906101000a900460ff1660ff16670de0b6b3a7640000600160008573ffffffffffffffffffffffffffffffffffffffff1673ffffffffffffffffffffffffffffffffffffffff16815260200190815260200160002054610da69190611329565b610db0919061139a565b9050919050565b60008211610dfa576040517f08c379a0000000000000000000000000000000000000000000000000000000008152600401610df190611739565b60405180910390fd5b600160003373ffffffffffffffffffffffffffffffffffffffff1673ffffffffffffffffffffffffffffffffffffffff16815260200190815260200160002054821115610e7c576040517f08c379a0000000000000000000000000000000000000000000000000000000008152600401610e73906117a5565b60405180910390fd5b610e863383610f52565b8015610f0057600060179054906101000a900460ff1660ff1682610eaa9190611329565b600160003373ffffffffffffffffffffffffffffffffffffffff1673ffffffffffffffffffffffffffffffffffffffff1681526020019081526020016000206000828254610ef891906115c7565b925050819055505b5050565b600060179054906101000a900460ff1681565b60026020528060005260406000206000915090505481565b6000808273ffffffffffffffffffffffffffffffffffffffff163b119050919050565b6000600160008473ffffffffffffffffffffffffffffffffffffffff1673ffffffffffffffffffffffffffffffffffffffff1681526020019081526020016000205411610fd4576040517f08c379a0000000000000000000000000000000000000000000000000000000008152600401610fcb906112da565b60405180910390fd5b80600160008473ffffffffffffffffffffffffffffffffffffffff1673ffffffffffffffffffffffffffffffffffffffff168152602001908152602001600020600082825461102391906117c5565b925050819055505050565b600080fd5b600073ffffffffffffffffffffffffffffffffffffffff82169050919050565b600061105e82611033565b9050919050565b61106e81611053565b811461107957600080fd5b50565b60008135905061108b81611065565b92915050565b6000602082840312156110a7576110a661102e565b5b60006110b58482850161107c565b91505092915050565b6000819050919050565b6110d1816110be565b82525050565b60006020820190506110ec60008301846110c8565b92915050565b600060ff82169050919050565b611108816110f2565b82525050565b600060208201905061112360008301846110ff565b92915050565b611132816110f2565b811461113d57600080fd5b50565b60008135905061114f81611129565b92915050565b60006020828403121561116b5761116a61102e565b5b600061117984828501611140565b91505092915050565b61118b816110be565b811461119657600080fd5b50565b6000813590506111a881611182565b92915050565b6000602082840312156111c4576111c361102e565b5b60006111d284828501611199565b91505092915050565b6111e481611053565b82525050565b60006020820190506111ff60008301846111db565b92915050565b60008115159050919050565b61121a81611205565b811461122557600080fd5b50565b60008135905061123781611211565b92915050565b600080604083850312156112545761125361102e565b5b600061126285828601611199565b925050602061127385828601611228565b9150509250929050565b600082825260208201905092915050565b7f596f7520646f6e2774206861766520616e79207469636b657400000000000000600082015250565b60006112c460198361127d565b91506112cf8261128e565b602082019050919050565b600060208201905081810360008301526112f3816112b7565b9050919050565b7f4e487b7100000000000000000000000000000000000000000000000000000000600052601160045260246000fd5b6000611334826110be565b915061133f836110be565b925082820261134d816110be565b91508282048414831517611364576113636112fa565b5b5092915050565b7f4e487b7100000000000000000000000000000000000000000000000000000000600052601260045260246000fd5b60006113a5826110be565b91506113b0836110be565b9250826113c0576113bf61136b565b5b828204905092915050565b7f496e73756666696369656e742062616c616e6365000000000000000000000000600082015250565b600061140160148361127d565b915061140c826113cb565b602082019050919050565b60006020820190508181036000830152611430816113f4565b9050919050565b7f4f6e6c79206f776e65722063616e2063616c6c20746869732066756e6374696f60008201527f6e2e000000000000000000000000000000000000000000000000000000000000602082015250565b600061149360228361127d565b915061149e82611437565b604082019050919050565b600060208201905081810360008301526114c281611486565b9050919050565b7f416d6f756e74206d7573742062652067726561746572207468616e2030000000600082015250565b60006114ff601d8361127d565b915061150a826114c9565b602082019050919050565b6000602082019050818103600083015261152e816114f2565b9050919050565b7f53656e7420657468657220646f6573206e6f74206d617463682074686520737060008201527f6563696669656420616d6f756e74000000000000000000000000000000000000602082015250565b6000611591602e8361127d565b915061159c82611535565b604082019050919050565b600060208201905081810360008301526115c081611584565b9050919050565b60006115d2826110be565b91506115dd836110be565b92508282019050808211156115f5576115f46112fa565b5b92915050565b7f496e697469616c697a61626c653a20636f6e747261637420697320616c72656160008201527f647920696e697469616c697a6564000000000000000000000000000000000000602082015250565b6000611657602e8361127d565b9150611662826115fb565b604082019050919050565b600060208201905081810360008301526116868161164a565b9050919050565b6000819050919050565b6000819050919050565b60006116bc6116b76116b28461168d565b611697565b6110f2565b9050919050565b6116cc816116a1565b82525050565b60006020820190506116e760008301846116c3565b92915050565b7f5469636b6574206d7573742062652067726561746572207468616e2030000000600082015250565b6000611723601d8361127d565b915061172e826116ed565b602082019050919050565b6000602082019050818103600083015261175281611716565b9050919050565b7f496e73756666696369656e74207469636b657400000000000000000000000000600082015250565b600061178f60138361127d565b915061179a82611759565b602082019050919050565b600060208201905081810360008301526117be81611782565b9050919050565b60006117d0826110be565b91506117db836110be565b92508282039050818111156117f3576117f26112fa565b5b9291505056fea2646970667358221220e5ce6d1d11f9d10b4084898a3efb0f9d2f7a026e0dd25ce40f0d21dd770262f564736f6c63430008120033",
  "linkReferences": {},
  "deployedLinkReferences": {}
}